:100000000C9463000C948B000C948B000C948B006C
:100010000C948B000C948B000C948B000C948B0034
:100020000C948B000C948B000C948B000C948B0024
:100030000C948B000C948B000C948B000C948B0014
:100040000C94C8060C948B000C9496060C947006C5
:100050000C948B000C948B000C948B000C948B00F4
:100060000C948B000C948B000000000023002600F1
:10007000290000000000240027002A0000000000E2
:10008000250028002B0004040404040404040202D4
:100090000202020203030303030301020408102007
:1000A0004080010204081020010204081020000012
:1000B0000008000201000003040700000000000027
:1000C000000012073A0911241FBECFEFD8E0DEBFAF
:1000D000CDBF21E0A0E3B1E001C01D92AF3EB20769
:1000E000E1F711E0A0E0B1E0EAE8F8E102C0059034
:1000F0000D92A033B107D9F710E0C2E6D0E004C0FA
:100100002197FE010E943B0AC136D107C9F70E9420
:1001100061070C94380C0C9400000895AF92BF92C4
:10012000CF92DF92EF92FF920F931F93CF93DF93C3
:100130006C017B018B01040F151FEB015E01AE18F2
:10014000BF08C017D10759F06991D601ED91FC9114
:100150000190F081E02DC6010995892B79F7C50141
:10016000DF91CF911F910F91FF90EF90DF90CF9093
:10017000BF90AF900895FC01538D448D252F30E042
:10018000842F90E0821B930B541710F0CF960895A4
:1001900001970895FC01918D828D981761F0A28DD1
:1001A000AE0FBF2FB11D5D968C91928D9F5F9F7397
:1001B000928F90E008958FEF9FEF08952FB7F894F6
:1001C00080913A0190913B01A0913C01B0913D0199
:1001D0002FBF8093460190934701A0934801B093AD
:1001E00049018EE391E00E94CA0097FF26C02FB715
:1001F000F89480913A0190913B01A0913C01B0911B
:100200003D012FBF40914601509147016091480147
:1002100070914901841B950BA60BB70B40914201CD
:1002200050914301609144017091450184179507F5
:10023000A607B707B0F28FEF9FEF0895FC01918DED
:10024000828D981731F0828DE80FF11D858D90E039
:1002500008958FEF9FEF0895FC01918D228D892FD6
:1002600090E0805C9F4F821B91098F7399270895BE
:100270008EE391E00E942C0121E0892B09F420E01B
:10028000822F089580E090E0892B29F00E943801A8
:1002900081110C9400000895FC01A48DA80FB92FC2
:1002A000B11DA35ABF4F2C91848D90E001968F739E
:1002B0009927848FA689B7892C93A089B1898C91BD
:1002C000837080648C93938D848D981306C002880C
:1002D000F389E02D80818F7D80830895EF92FF92D6
:1002E0000F931F93CF93DF93EC0181E0888F9B8D59
:1002F0008C8D98131AC0E889F989808185FF15C013
:100300009FB7F894EE89FF896083E889F989808135
:100310008370806480839FBF81E090E0DF91CF9104
:100320001F910F91FF90EF900895F62E0B8D10E026
:100330000F5F1F4F0F731127E02E8C8D8E110CC095
:100340000FB607FCFACFE889F989808185FFF5CFE0
:10035000CE010E944C01F1CFEB8DEC0FFD2FF11D72
:10036000E35AFF4FF0829FB7F8940B8FEA89FB891D
:1003700080818062CFCFCF93DF93EC01888D88237B
:10038000B9F0AA89BB89E889F9898C9185FD03C0F8
:10039000808186FD0DC00FB607FCF7CF8C9185FFDD
:1003A000F2CF808185FFEDCFCE010E944C01E9CFD5
:1003B000DF91CF91089590E0FC01E255FF4F249129
:1003C000FC01E656FF4F3491FC01EA57FF4FE491E0
:1003D000EE23C9F0222339F0233001F1A8F42130B3
:1003E00019F1223029F1F0E0EE0FFF1FE458FF4F22
:1003F000A591B4918FB7F894EC91611126C0309516
:100400003E233C938FBF08952730A9F02830C9F0D0
:10041000243049F7809180008F7D03C08091800057
:100420008F7780938000DFCF84B58F7784BDDBCF5B
:1004300084B58F7DFBCF8091B0008F778093B00023
:10044000D2CF8091B0008F7DF9CF3E2BDACFCF9302
:10045000DF9390E0FC01E656FF4F24918A579F4FAF
:10046000FC0184918823D1F090E0880F991FFC0152
:10047000EE58FF4FA591B491FC01E458FF4FC59190
:10048000D49161110EC09FB7F8948C91E22FE09542
:100490008E238C932881E223E8839FBFDF91CF9145
:1004A00008958FB7F894EC91E22BEC938FBFF6CFC1
:1004B0003FB7F8948091310190913201A0913301BE
:1004C000B091340126B5A89B05C02F3F19F00196C5
:1004D000A11DB11D3FBFBA2FA92F982F8827BC019E
:1004E000CD01620F711D811D911D42E0660F771FC6
:1004F000881F991F4A95D1F708958F929F92AF92C6
:10050000BF92CF92DF92EF92FF924B015C010E946B
:1005100058026B017C010E9458026C197D098E09FA
:100520009F09683E734081059105A8F321E0821A76
:100530009108A108B10888EEC80E83E0D81EE11C1E
:10054000F11C81149104A104B10429F7FF90EF90EC
:10055000DF90CF90BF90AF909F908F9008950F93B2
:100560001F93CF93DF93DA01A9019801EC017F83F8
:100570006E83FB01E656FF4FE491E887FB01EA57E3
:10058000FF4FE491E987E881F9810480F581E02D4E
:10059000BD01DF91CF911F910F9109946F927F92CE
:1005A0008F929F92AF92BF92CF92DF92EF92FF9283
:1005B0000F931F93CF93DF93CDB7DEB7AC970FB6F2
:1005C000F894DEBF0FBECDBFDC011696ED91FC9115
:1005D000319609F480C059013A016B018C01FE018A
:1005E00031964F0188E2DF011D928A95E9F7D80123
:1005F000ED91FC910484F585E02DB401C8010995C5
:100600007C01892B09F051C01AA619A61CA61BA6AD
:10061000D801ED91FC910684F785E02D9E01255DC2
:100620003F4FAE01475D5F4FB401C80109957C01A2
:10063000892BD9F5A114B10439F088E2F401D50170
:1006400001900D928A95E1F709A51AA5C114D1046C
:1006500079F0612F772767FD7A95072E000C880BBC
:10066000990B0E946A09F6016083718382839383E8
:100670006114710489F08CA5682F782F770F770BA0
:10068000072E000C880B990B0E946A09D3016D9309
:100690007D938D939C931397012B39F48BA59CA587
:1006A000892B19F496E1E92EF12CC701AC960FB60F
:1006B000F894DEBF0FBECDBFDF91CF911F910F9198
:1006C000FF90EF90DF90CF90BF90AF909F908F9072
:1006D0007F906F90089587E1E82EF12CE6CF8F92FE
:1006E0009F92AF92BF92CF92DF92EF92FF920F93C1
:1006F0001F93CF93DF93EC018B016A017901E881AD
:10070000F9810284F385E02D0995B82EB801685F60
:100710007F4FE881F9810284F385E02DCE010995B0
:10072000982EB801605F7F4FE881F9810284F385DC
:10073000E02DCE010995A82EB801685E7F4FE881B3
:10074000F9810284F385E02DCE010995882EB80148
:10075000605E7F4FE881F9810284F385E02DCE0150
:1007600009959B2D990D9A0D980D891319C09A2DF5
:10077000882DF601918380839B2D892DF70191832C
:10078000808390E080E0DF91CF911F910F91FF90E7
:10079000EF90DF90CF90BF90AF909F908F90089593
:1007A00085E190E0F0CF47E050E080E0FB0121914F
:1007B000BF01042E01C0220F0A94EAF7820F4150B4
:1007C0005109A0F708953F924F925F926F927F92E6
:1007D0008F929F92AF92BF92CF92DF92EF92FF9251
:1007E0000F931F93CF93DF93EC01162F7A016901CA
:1007F0000E9458024B015C01312C111138843601E2
:10080000660C771C660C771C85E0681A7108270156
:10081000440C551C440C551C85E0481A510810E046
:1008200000E060E070E0CB012A813B814C815D817A
:1008300026173707480759070CF10115110599F5D7
:1008400082E0E816F1041CF0C2010197F1F70E9462
:100850005802681979098A099B09E985F0E0EE0FC9
:10086000FF1FE859FF4FA591B4912C910F5F1F4FC7
:1008700038852323231105C097FFD6CF6FEF7FEF75
:10088000CB01DF91CF911F910F91FF90EF90DF90FF
:10089000CF90BF90AF909F908F907F906F905F9020
:1008A0004F903F90089582E0C816D10484F2C301AE
:1008B000CCCF0F931F93CF93DF93DA01A901980157
:1008C000EC017F836E83FB01E656FF4FE491E887DE
:1008D000FB01EA57FF4FE491E987E881F981019034
:1008E000F081E02DBD01DF91CF911F910F9109940F
:1008F000CF92DF92EF92FF920F931F93CF93DF93EC
:10090000CDB7DEB728970FB6F894DEBF0FBECDBFC8
:10091000DC011696ED91FC91319609F440C08A01F4
:100920007B0119821A821B821C821D821E821F82F9
:100930001886DC01ED91FC910480F581E02DAE017B
:100940004B5F5F4FBE016F5F7F4F09956C01892B35
:10095000B1F4E114F10441F069817A818B819C81C9
:100960000E94050AF70160830115110541F06D81B0
:100970007E818F8198850E94050AD8016C93C601FB
:1009800028960FB6F894DEBF0FBECDBFDF91CF9192
:100990001F910F91FF90EF90DF90CF90089587E126
:1009A000C82ED12CECCFCF93DF93EC0188819981B5
:1009B000009711F00E94DD0A198218821D821C82A4
:1009C0001B821A82DF91CF910895FC018081918171
:1009D000009711F00C94DD0A08950E94230C0F93E8
:1009E0001F93CF93DF93EC0188819981009759F091
:1009F0002A813B812617370730F081E0DF91CF91C4
:100A00001F910F9108958B016F5F7F4F0E94660BBE
:100A1000009759F0998388831B830A832C813D8139
:100A2000232B59F7FC011082E8CF80E0E7CFEF924B
:100A3000FF920F931F93CF93DF936115710541F4DC
:100A400080E0DF91CF911F910F91FF90EF9008957B
:100A500041155105B1F07B01EC010C811D81040FA2
:100A6000151FB8010E94EF04882351F328813981B2
:100A70008C819D81B701820F931F0E94310C1D83D1
:100A80000C8381E0DECF0F931F93CF93DF9300D0D1
:100A9000CDB7DEB78C0169831A8241E050E0BE0118
:100AA0006F5F7F4F0E941705811103C0C8010E942C
:100AB000D304C8010F900F90DF91CF911F910F9138
:100AC0000895EF92FF920F931F93CF93DF93EC0162
:100AD0007B018A01BA010E94EF0481110BC0CE0193
:100AE0000E94D304CE01DF91CF911F910F91FF900F
:100AF000EF9008951D830C83B701888199810E942E
:100B0000310CF0CFEF92FF920F931F93CF93DF93AF
:100B1000CDB7DEB729970FB6F894DEBF0FBECDBFB5
:100B20008C01862FF80111821082138212821582A5
:100B300014824AE09E012F5F3F4F7901B90190E096
:100B40000E943E09F70101900020E9F73197AF01BB
:100B50004E195F09B701C8010E94610529960FB6B9
:100B6000F894DEBF0FBECDBFDF91CF911F910F91E3
:100B7000FF90EF900895EF92FF920F931F93CF9302
:100B8000DF93EC018B0188E2FB0111928A95E9F772
:100B900061E08E810E94270260E08E810E94DB016D
:100BA00064E170E080E090E00E947D0261E08E816F
:100BB0000E94DB0160E08E810E9427028FE590E0B9
:100BC0000197F1F7E881F9810084F185E02D26E0B5
:100BD00030E04AE050E060E0CE0109956E317105E9
:100BE000810591056CF4982F872F762F6627606119
:100BF000CB01DF91CF911F910F91FF90EF9008955E
:100C0000E881F9810084F185E02D26E030E04AE0BA
:100C100050E061E0CE0109957801F8E2EF0EF11C99
:100C2000623371058105910534F4982F872F762F53
:100C300066276161DDCFE881F9810084F185E02DCF
:100C400026E030E04AE050E060E0CE0109956831EE
:100C500071058105910534F4982F872F762F66272B
:100C60006261C6CFE881F9810084F185E02D26E03C
:100C700030E04AE050E061E0CE0109956B3071054B
:100C80008105910534F4982F872F762F66276361AD
:100C9000AFCF21E069327105810591050CF420E0A8
:100CA000F80121938F01EE16FF0629F6E881F981FC
:100CB0000084F185E02D26E030E04AE050E060E07D
:100CC000CE010995683171058105910534F4982F9D
:100CD000872F762F662764618BCF70E060E088CF26
:100CE0001F920F920FB60F9211242F933F934F93A1
:100CF0005F936F937F938F939F93AF93BF93EF9384
:100D0000FF938EE391E00E944C01FF91EF91BF9120
:100D1000AF919F918F917F916F915F914F913F9193
:100D20002F910F900FBE0F901F9018951F920F924A
:100D30000FB60F9211242F938F939F93EF93FF93EE
:100D4000E0914E01F0914F018081E0915401F091CA
:100D5000550182FD1BC09081809157018F5F8F7379
:100D600020915801821741F0E0915701F0E0E25CD8
:100D7000FE4F958F80935701FF91EF919F918F9137
:100D80002F910F900FBE0F901F9018958081F4CF78
:100D90001F920F920FB60F9211242F933F938F93B0
:100DA0009F93AF93BF9380913A0190913B01A091A3
:100DB0003C01B0913D013091300123E0230F2D37EC
:100DC00058F50196A11DB11D2093300180933A0181
:100DD00090933B01A0933C01B0933D018091310180
:100DE00090913201A0913301B09134010196A11D7F
:100DF000B11D8093310190933201A0933301B093E0
:100E00003401BF91AF919F918F913F912F910F909E
:100E10000FBE0F901F90189526E8230F0296A11D74
:100E2000B11DD2CFEEE3F1E01382128288EE93E09F
:100E3000A0E0B0E084839583A683B7838AE091E045
:100E40009183808385EC90E09587848784EC90E0A3
:100E50009787868780EC90E0918B808B81EC90E087
:100E6000938B828B82EC90E0958B848B86EC90E068
:100E7000978B868B118E128E138E148EE1EEF1E01D
:100E800080E49BE4ACE4B0E082839383A483B583E5
:100E90008FEF9FEF97838683808781878CE191E036
:100EA00091838083EBEDF1E0118210821382128234
:100EB0001582148250E040E06EE271E0CF010C94A4
:100EC0006105CF93DF93CDB7DEB762970FB6F89485
:100ED000DEBF0FBECDBF789484B5826084BD84B57B
:100EE000816084BD85B5826085BD85B5816085BD25
:100EF00080916E00816080936E00109281008091DD
:100F00008100826080938100809181008160809364
:100F10008100809180008160809380008091B10089
:100F200084608093B1008091B00081608093B000B4
:100F300080917A00846080937A0080917A00826048
:100F400080937A0080917A00816080937A0080910A
:100F50007A00806880937A001092C100E0914E017F
:100F6000F0914F0182E08083E0914A01F0914B01C2
:100F70001082E0914C01F0914D018FEC8083109232
:100F80005601E0915201F091530186E08083E09197
:100F90005001F0915101808180618083E091500186
:100FA000F0915101808188608083E0915001F0913F
:100FB0005101808180688083E0915001F09151015E
:100FC00080818F7D808361E087E00E94270261E05D
:100FD00086E00E94270261E085E00E94270260E02F
:100FE00087E00E94DB0160E086E00E94DB0160E0B8
:100FF00085E00E94DB0180E0E82E80E0F82E809101
:101000003801909139010A9709F065C010E000E0BD
:1010100026E331E047E351E06CE070E081EE91E0DF
:101020000E94590460913601CE0101960E9482050A
:1010300060913701CE0107960E9482051E861D86AB
:10104000188A1F861A8A198A42E050E06CE271E021
:10105000CE010D960E9461054B855C856F81788578
:10106000CE010D960E941705811104C0CE010D9688
:101070000E94D3046AE2CE010D960E9443058C01C2
:101080004D815E8169817A810E941705811103C0BB
:10109000C8010E94D3046AE2C8010E9443056AE0C5
:1010A0000E944305FC0144815581608171818EE37A
:1010B00091E00E948E00CE010D960E94E504CE01C3
:1010C00007960E94E504CE0101960E94E504109265
:1010D00039011092380180913801909139010196BF
:1010E00090933901809338018EE391E00E942C01A6
:1010F000181619060CF08FC01A8219821C821B82E6
:101100001E821D8250E040E06EE271E0CE01019649
:101110000E9461050E94DE0097FD0FC08A30910594
:1011200061F08F83188641E050E0BE01695F7F4F18
:10113000CE0101960E941705EDCF8091DB019091C1
:10114000DC01009709F47BC069817A816115710522
:1011500009F473C04091DD015091DE012D813E8183
:101160004217530708F469C00E94310C8D819E819B
:101170009093E0018093DF011E821D82CE010196D3
:101180000E94E5048091DF019091E001892B31F00C
:10119000E091DB01F091DC01309721F410923501F0
:1011A000E5E3F1E0808160E0803309F061E087E011
:1011B0000E94DB018091DF019091E001029738F0FD
:1011C000E091DB01F091DC01309709F04FC0109203
:1011D0003501E5E3F1E0808160E0803309F061E012
:1011E00086E00E94DB018091DF019091E00103978E
:1011F00030F0E091DB01F091DC013097C9F51092FD
:101200003501E5E3F1E0808160E0803309F061E0E1
:1012100085E00E94DB0164EF71E080E090E00E94D5
:101220007D02E114F10409F4EACE0E94380188231A
:1012300009F4E5CE0E940000E2CE0E94DD0A898119
:101240009A819093DC018093DB018B819C81909348
:10125000DE018093DD018D819E819093E00180937A
:10126000DF011A8219821C821B8286CF3196B3CF8E
:101270003296C9CF8BED91E00C94E504BB27FB01BE
:101280005527AA27880F991FAA1FA41710F0A41B7F
:1012900083955051B9F7A05DAA3308F0A95DA193D9
:1012A000009779F7B111B1931192CB010C945809C1
:1012B000DC01FC01672F71917723E1F7329704C0BD
:1012C0007C916D9370836291AE17BF07C8F3089548
:1012D000E89409C097FB3EF49095809570956195D0
:1012E0007F4F8F4F9F4F9923A9F0F92F96E9BB2786
:1012F0009395F695879577956795B795F111F8CF02
:10130000FAF4BB0F11F460FF1BC06F5F7F4F8F4F6C
:101310009F4F16C0882311F096E911C0772321F062
:101320009EE8872F762F05C0662371F096E8862FFA
:1013300070E060E02AF09A95660F771F881FDAF751
:10134000880F9695879597F9089557FD9058440F03
:10135000551F59F05F3F71F04795880F97FB991F14
:1013600061F09F3F79F087950895121613061406D1
:10137000551FF2CF4695F1DF08C01616170618065E
:10138000991FF1CF86957105610508940895E89439
:10139000BB2766277727CB0197F908952F923F92B5
:1013A0004F925F926F927F928F929F92AF92BF9275
:1013B000CF92DF92EF92FF920F931F93CF93DF9321
:1013C000CDB7DEB7CA1BDB0B0FB6F894DEBF0FBE7E
:1013D000CDBF09942A88398848885F846E847D84CB
:1013E0008C849B84AA84B984C884DF80EE80FD80CD
:1013F0000C811B81AA81B981CE0FD11D0FB6F89443
:10140000DEBF0FBECDBFED0108950E940C0A6894A7
:10141000B1110C94C80908950E94AD0988F09F5736
:1014200098F0B92F9927B751B0F0E1F0660F771F08
:10143000881F991F1AF0BA95C9F714C0B13091F0FE
:101440000E94C709B1E008950C94C709672F782F4F
:101450008827B85F39F0B93FCCF3869577956795C3
:10146000B395D9F73EF490958095709561957F4F2F
:101470008F4F9F4F0895EE0FFF1F0590F491E02DC1
:1014800009940F931F93CF93DF938230910510F44B
:1014900082E090E0E091ED01F091EE0130E020E09B
:1014A000B0E0A0E0309799F42115310509F44AC065
:1014B000281B390B24303105D8F58A819B816115B1
:1014C000710589F1FB0193838283FE0111C0408184
:1014D00051810281138148175907E0F048175907D5
:1014E00099F4109761F012960C93129713961C932F
:1014F0003296CF01DF91CF911F910F910895009304
:10150000ED011093EE01F4CF2115310551F0421792
:10151000530738F0A901DB019A01BD01DF01F80191
:10152000C1CFEF01F9CF9093EE018093ED01CDCFC4
:10153000FE01E20FF31F8193919322503109398309
:101540002883D7CF2091EB013091EC01232B41F47C
:1015500020910201309103013093EC012093EB01C3
:1015600020910001309101012115310541F42DB781
:101570003EB74091040150910501241B350BE091C9
:10158000EB01F091EC01E217F307A0F42E1B3F0BE7
:101590002817390778F0AC014E5F5F4F24173507E5
:1015A00048F04E0F5F1F5093EC014093EB01819385
:1015B00091939FCFF0E0E0E09CCFCF93DF93009733
:1015C000E9F0FC01329713821282A091ED01B091F3
:1015D000EE01ED0130E020E01097A1F4208131818F
:1015E000820F931F2091EB013091EC0128173907EE
:1015F00009F061C0F093EC01E093EB01DF91CF9132
:101600000895EA01CE17DF07E8F54A815B819E0164
:1016100041155105B1F7E901FB83EA8349915991DD
:10162000C40FD51FEC17FD0761F4808191810296EC
:10163000840F951FE90199838883828193819B831D
:101640008A83F0E0E0E012968D919C9113970097C9
:10165000B9F52D913C911197CD010296820F931F00
:101660002091EB013091EC012817390739F63097BA
:1016700051F51092EE011092ED01B093EC01A093A0
:10168000EB01BCCFD383C28340815181840F951F6E
:10169000C817D90761F44E5F5F4F88819981480F61
:1016A000591F518340838A819B81938382832115B3
:1016B000310509F0B0CFF093EE01E093ED019ECF3C
:1016C000FD01DC01C0CF13821282D7CFB0E0A0E0D1
:1016D000ECE6FBE00C94D0098C01009751F4CB01AF
:1016E0000E94410A8C01C801CDB7DEB7E0E10C943D
:1016F000EC09FC01E60FF71F9C0122503109E217AB
:10170000F30708F49DC0D901CD91DC911197C6175C
:10171000D70798F0C530D10530F3CE01049786176E
:10172000970708F3C61BD70B2297C193D1936D93EC
:101730007C93CF010E94DD0AD6CF5B01AC1ABD0AB3
:101740004C018C0E9D1EA091ED01B091EE01512C2B
:10175000412CF12CE12C109731F58091EB01909107
:10176000EC018815990509F05CC04616570608F08B
:1017700058C08091000190910101009741F48DB70C
:101780009EB74091040150910501841B950BE81709
:10179000F90708F055C0F093EC01E093EB01F90173
:1017A00071836083A0CF8D919C91119712966C905C
:1017B000129713967C901397A815B90559F56C01EB
:1017C00042E0C40ED11CCA14DB0420F1AC014A195A
:1017D0005B09DA011296159780F062827382518359
:1017E0004083D9016D937C93E114F10471F0D7012A
:1017F0001396FC93EE93129776CF22968C0F9D1F33
:10180000F90191838083F301EFCFF093EE01E09330
:10181000ED0169CF4816590608F42C017D01D3016A
:101820009ACFCB010E94410A7C01009749F0AE019A
:10183000B8010E94280CC8010E94DD0A870153CF1D
:1018400010E000E050CF81E090E0F8940C94380C68
:10185000FB01DC0102C001900D9241505040D8F7CD
:101860000895FB01DC0101900D920020E1F708953D
:1018700010E0C2E6D0E004C0FE010E943B0A2196BF
:0A188000C336D107C9F7F894FFCF73
:10188A000000EF018000000000006E018E00BB0026
:10189A00BB012C01CA001E01000000007804590493
:1018AA00CE02AF02E303D303BB056F03442A000051
:00000001FF
